{
  "_format": "hh-sol-artifact-1",
  "contractName": "Fantasy",
  "sourceName": "contracts/Fantasy.sol",
  "abi": [
    {
      "anonymous": false,
      "inputs": [
        {
          "indexed": true,
          "internalType": "uint256",
          "name": "seasonId",
          "type": "uint256"
        },
        {
          "indexed": true,
          "internalType": "address",
          "name": "member",
          "type": "address"
        }
      ],
      "name": "MemberJoined",
      "type": "event"
    },
    {
      "anonymous": false,
      "inputs": [
        {
          "indexed": true,
          "internalType": "uint256",
          "name": "seasonId",
          "type": "uint256"
        },
        {
          "indexed": true,
          "internalType": "address",
          "name": "member",
          "type": "address"
        },
        {
          "indexed": true,
          "internalType": "uint256",
          "name": "addedWinning",
          "type": "uint256"
        }
      ],
      "name": "PlayerWin",
      "type": "event"
    },
    {
      "anonymous": false,
      "inputs": [
        {
          "indexed": true,
          "internalType": "uint256",
          "name": "seasonId",
          "type": "uint256"
        },
        {
          "indexed": true,
          "internalType": "address",
          "name": "commisioner",
          "type": "address"
        }
      ],
      "name": "SeasonCompleted",
      "type": "event"
    },
    {
      "anonymous": false,
      "inputs": [
        {
          "indexed": true,
          "internalType": "uint256",
          "name": "seasonId",
          "type": "uint256"
        },
        {
          "indexed": true,
          "internalType": "address",
          "name": "commissioner",
          "type": "address"
        }
      ],
      "name": "SeasonStarted",
      "type": "event"
    },
    {
      "anonymous": false,
      "inputs": [
        {
          "indexed": true,
          "internalType": "uint256",
          "name": "seasonId",
          "type": "uint256"
        },
        {
          "indexed": true,
          "internalType": "address",
          "name": "member",
          "type": "address"
        }
      ],
      "name": "Whitelisted",
      "type": "event"
    },
    {
      "stateMutability": "payable",
      "type": "fallback"
    },
    {
      "inputs": [
        {
          "internalType": "uint256",
          "name": "_buyIn",
          "type": "uint256"
        }
      ],
      "name": "addSeason",
      "outputs": [],
      "stateMutability": "nonpayable",
      "type": "function"
    },
    {
      "inputs": [
        {
          "internalType": "uint256",
          "name": "_seasonId",
          "type": "uint256"
        },
        {
          "internalType": "address",
          "name": "_address",
          "type": "address"
        }
      ],
      "name": "addToWhitelist",
      "outputs": [],
      "stateMutability": "nonpayable",
      "type": "function"
    },
    {
      "inputs": [
        {
          "internalType": "uint256",
          "name": "_seasonId",
          "type": "uint256"
        },
        {
          "internalType": "address",
          "name": "_player",
          "type": "address"
        },
        {
          "internalType": "uint256",
          "name": "_winnings",
          "type": "uint256"
        }
      ],
      "name": "addWinnings",
      "outputs": [],
      "stateMutability": "nonpayable",
      "type": "function"
    },
    {
      "inputs": [
        {
          "internalType": "uint256",
          "name": "_seasonId",
          "type": "uint256"
        },
        {
          "internalType": "uint256",
          "name": "_buyIn",
          "type": "uint256"
        }
      ],
      "name": "buyIn",
      "outputs": [],
      "stateMutability": "payable",
      "type": "function"
    },
    {
      "inputs": [
        {
          "internalType": "uint256",
          "name": "_seasonId",
          "type": "uint256"
        }
      ],
      "name": "completeSeason",
      "outputs": [],
      "stateMutability": "nonpayable",
      "type": "function"
    },
    {
      "inputs": [],
      "name": "getBalance",
      "outputs": [
        {
          "internalType": "uint256",
          "name": "",
          "type": "uint256"
        }
      ],
      "stateMutability": "view",
      "type": "function"
    },
    {
      "inputs": [
        {
          "internalType": "uint256",
          "name": "_seasonId",
          "type": "uint256"
        }
      ],
      "name": "getSeasonCommissioner",
      "outputs": [
        {
          "internalType": "address",
          "name": "",
          "type": "address"
        }
      ],
      "stateMutability": "view",
      "type": "function"
    },
    {
      "inputs": [
        {
          "internalType": "uint256",
          "name": "_seasonId",
          "type": "uint256"
        }
      ],
      "name": "getSeasonPrizePool",
      "outputs": [
        {
          "internalType": "uint256",
          "name": "",
          "type": "uint256"
        }
      ],
      "stateMutability": "view",
      "type": "function"
    },
    {
      "inputs": [
        {
          "internalType": "uint256",
          "name": "_seasonId",
          "type": "uint256"
        }
      ],
      "name": "getSeasonWinnings",
      "outputs": [
        {
          "internalType": "uint256",
          "name": "",
          "type": "uint256"
        }
      ],
      "stateMutability": "view",
      "type": "function"
    },
    {
      "inputs": [
        {
          "internalType": "uint256",
          "name": "_seasonId",
          "type": "uint256"
        },
        {
          "internalType": "address",
          "name": "_address",
          "type": "address"
        }
      ],
      "name": "removeFromWhitelist",
      "outputs": [],
      "stateMutability": "nonpayable",
      "type": "function"
    },
    {
      "inputs": [],
      "name": "seasonCounter",
      "outputs": [
        {
          "internalType": "uint256",
          "name": "",
          "type": "uint256"
        }
      ],
      "stateMutability": "view",
      "type": "function"
    },
    {
      "inputs": [
        {
          "internalType": "uint256",
          "name": "",
          "type": "uint256"
        }
      ],
      "name": "seasons",
      "outputs": [
        {
          "internalType": "uint256",
          "name": "id",
          "type": "uint256"
        },
        {
          "internalType": "address payable",
          "name": "commissioner",
          "type": "address"
        },
        {
          "internalType": "uint256",
          "name": "buyIn",
          "type": "uint256"
        },
        {
          "internalType": "uint256",
          "name": "prizePool",
          "type": "uint256"
        },
        {
          "internalType": "bool",
          "name": "started",
          "type": "bool"
        },
        {
          "internalType": "bool",
          "name": "distributed",
          "type": "bool"
        },
        {
          "internalType": "bool",
          "name": "complete",
          "type": "bool"
        }
      ],
      "stateMutability": "view",
      "type": "function"
    },
    {
      "inputs": [
        {
          "internalType": "uint256",
          "name": "_seasonId",
          "type": "uint256"
        }
      ],
      "name": "withdrawWinnings",
      "outputs": [],
      "stateMutability": "nonpayable",
      "type": "function"
    },
    {
      "stateMutability": "payable",
      "type": "receive"
    }
  ],
  "bytecode": "0x608060405234801561001057600080fd5b50611d2c806100206000396000f3fe6080604052600436106100c65760003560e01c8063bd7048211161007f578063f170350611610059578063f17035061461025f578063f43c24e414610288578063f5d709a1146102c5578063fea3e61314610308576100cd565b8063bd704821146101bc578063e661d27b146101f9578063ef4ca9d814610222576100cd565b806312065fe0146100cf57806314794702146100fa5780631ed29aae146101235780632d7854611461014e5780632e50467e14610177578063b9514efe14610193576100cd565b366100cd57005b005b3480156100db57600080fd5b506100e4610331565b6040516100f1919061136a565b60405180910390f35b34801561010657600080fd5b50610121600480360381019061011c91906113b6565b610339565b005b34801561012f57600080fd5b506101386105dc565b604051610145919061136a565b60405180910390f35b34801561015a57600080fd5b5061017560048036038101906101709190611441565b6105e2565b005b610191600480360381019061018c9190611481565b610759565b005b34801561019f57600080fd5b506101ba60048036038101906101b591906113b6565b610aa8565b005b3480156101c857600080fd5b506101e360048036038101906101de91906113b6565b610c81565b6040516101f091906114d0565b60405180910390f35b34801561020557600080fd5b50610220600480360381019061021b91906113b6565b610cd0565b005b34801561022e57600080fd5b50610249600480360381019061024491906113b6565b610e69565b604051610256919061136a565b60405180910390f35b34801561026b57600080fd5b50610286600480360381019061028191906114eb565b610ed8565b005b34801561029457600080fd5b506102af60048036038101906102aa91906113b6565b61115e565b6040516102bc919061136a565b60405180910390f35b3480156102d157600080fd5b506102ec60048036038101906102e791906113b6565b61118d565b6040516102ff979695949392919061157a565b60405180910390f35b34801561031457600080fd5b5061032f600480360381019061032a9190611441565b611226565b005b600047905090565b60006001828154811061034f5761034e6115e9565b5b906000526020600020906007020190508060060160009054906101000a900460ff166103b0576040517f08c379a00000000000000000000000000000000000000000000000000000000081526004016103a790611675565b60405180910390fd5b60008160030160003373ffffffffffffffffffffffffffffffffffffffff1673ffffffffffffffffffffffffffffffffffffffff16815260200190815260200160002090503373ffffffffffffffffffffffffffffffffffffffff168160000160009054906101000a900473ffffffffffffffffffffffffffffffffffffffff1673ffffffffffffffffffffffffffffffffffffffff1614610487576040517f08c379a000000000000000000000000000000000000000000000000000000000815260040161047e90611707565b60405180910390fd5b600081600101549050600081116104d3576040517f08c379a00000000000000000000000000000000000000000000000000000000081526004016104ca90611773565b60405180910390fd5b60003373ffffffffffffffffffffffffffffffffffffffff16826040516104f9906117c4565b60006040518083038185875af1925050503d8060008114610536576040519150601f19603f3d011682016040523d82523d6000602084013e61053b565b606091505b50509050801561055057600083600101819055505b80610590576040517f08c379a000000000000000000000000000000000000000000000000000000000815260040161058790611825565b60405180910390fd5b813373ffffffffffffffffffffffffffffffffffffffff16867f9215ac8a18fe06f1ee613cb825d49cd5e70298bab5389d89ddcf27652f893f9260405160405180910390a45050505050565b60005481565b81600181815481106105f7576105f66115e9565b5b906000526020600020906007020160010160009054906101000a900473ffffffffffffffffffffffffffffffffffffffff1673ffffffffffffffffffffffffffffffffffffffff163373ffffffffffffffffffffffffffffffffffffffff1614610696576040517f08c379a000000000000000000000000000000000000000000000000000000000815260040161068d906118b7565b60405180910390fd5b60018084815481106106ab576106aa6115e9565b5b906000526020600020906007020160020160008473ffffffffffffffffffffffffffffffffffffffff1673ffffffffffffffffffffffffffffffffffffffff16815260200190815260200160002060006101000a81548160ff0219169083151502179055508173ffffffffffffffffffffffffffffffffffffffff16837f2279719af4080e08a5a2b25c8234a83b76079141524127d1096409ac07fa5d0f60405160405180910390a3505050565b81336001828154811061076f5761076e6115e9565b5b906000526020600020906007020160020160008273ffffffffffffffffffffffffffffffffffffffff1673ffffffffffffffffffffffffffffffffffffffff16815260200190815260200160002060009054906101000a900460ff1661080a576040517f08c379a000000000000000000000000000000000000000000000000000000000815260040161080190611923565b60405180910390fd5b6000600185815481106108205761081f6115e9565b5b906000526020600020906007020190508060060160009054906101000a900460ff16610881576040517f08c379a000000000000000000000000000000000000000000000000000000000815260040161087890611675565b60405180910390fd5b806004015484146108c7576040517f08c379a00000000000000000000000000000000000000000000000000000000081526004016108be9061198f565b60405180910390fd5b833414610909576040517f08c379a000000000000000000000000000000000000000000000000000000000815260040161090090611a21565b60405180910390fd5b60008160030160003373ffffffffffffffffffffffffffffffffffffffff1673ffffffffffffffffffffffffffffffffffffffff1681526020019081526020016000209050600073ffffffffffffffffffffffffffffffffffffffff168160000160009054906101000a900473ffffffffffffffffffffffffffffffffffffffff1673ffffffffffffffffffffffffffffffffffffffff16146109e1576040517f08c379a00000000000000000000000000000000000000000000000000000000081526004016109d890611ab3565b60405180910390fd5b338160000160006101000a81548173ffffffffffffffffffffffffffffffffffffffff021916908373ffffffffffffffffffffffffffffffffffffffff16021790555060018160000160146101000a81548160ff02191690831515021790555084826005016000828254610a559190611b02565b925050819055503373ffffffffffffffffffffffffffffffffffffffff16867f78da64a590c3052953ad9e0a5546bbf12bb68ae7634e3fb2a774e22a8c6557c160405160405180910390a3505050505050565b8060018181548110610abd57610abc6115e9565b5b906000526020600020906007020160010160009054906101000a900473ffffffffffffffffffffffffffffffffffffffff1673ffffffffffffffffffffffffffffffffffffffff163373ffffffffffffffffffffffffffffffffffffffff1614610b5c576040517f08c379a0000000000000000000000000000000000000000000000000000000008152600401610b53906118b7565b60405180910390fd5b600060018381548110610b7257610b716115e9565b5b906000526020600020906007020190508060060160029054906101000a900460ff1615610bd4576040517f08c379a0000000000000000000000000000000000000000000000000000000008152600401610bcb90611b82565b60405180910390fd5b6000816005015414610c1b576040517f08c379a0000000000000000000000000000000000000000000000000000000008152600401610c1290611bee565b60405180910390fd5b60018160060160026101000a81548160ff0219169083151502179055503373ffffffffffffffffffffffffffffffffffffffff16837f153da8a31de493ca49e0e2375b93112a0ac09b6497db92257750a4d46b5b552260405160405180910390a3505050565b600060018281548110610c9757610c966115e9565b5b906000526020600020906007020160010160009054906101000a900473ffffffffffffffffffffffffffffffffffffffff169050919050565b6000805490506000600180816001815401808255809150500390600052602060002090600702019050818160000181905550828160040181905550338160010160006101000a81548173ffffffffffffffffffffffffffffffffffffffff021916908373ffffffffffffffffffffffffffffffffffffffff16021790555060018160060160006101000a81548160ff02191690831515021790555060018160020160003373ffffffffffffffffffffffffffffffffffffffff1673ffffffffffffffffffffffffffffffffffffffff16815260200190815260200160002060006101000a81548160ff021916908315150217905550600080815480929190610dd790611c0e565b91905055503373ffffffffffffffffffffffffffffffffffffffff16827f85b74d939f39ceda70b67ac5dee1675fa6804b907f40c2189cf10d695acb11bc60405160405180910390a33373ffffffffffffffffffffffffffffffffffffffff16827f2279719af4080e08a5a2b25c8234a83b76079141524127d1096409ac07fa5d0f60405160405180910390a3505050565b600060018281548110610e7f57610e7e6115e9565b5b906000526020600020906007020160030160003373ffffffffffffffffffffffffffffffffffffffff1673ffffffffffffffffffffffffffffffffffffffff168152602001908152602001600020600101549050919050565b8260018181548110610eed57610eec6115e9565b5b906000526020600020906007020160010160009054906101000a900473ffffffffffffffffffffffffffffffffffffffff1673ffffffffffffffffffffffffffffffffffffffff163373ffffffffffffffffffffffffffffffffffffffff1614610f8c576040517f08c379a0000000000000000000000000000000000000000000000000000000008152600401610f83906118b7565b60405180910390fd5b600060018581548110610fa257610fa16115e9565b5b906000526020600020906007020190508060060160009054906101000a900460ff16611003576040517f08c379a0000000000000000000000000000000000000000000000000000000008152600401610ffa90611675565b60405180910390fd5b60008160030160008673ffffffffffffffffffffffffffffffffffffffff1673ffffffffffffffffffffffffffffffffffffffff1681526020019081526020016000209050600073ffffffffffffffffffffffffffffffffffffffff168160000160009054906101000a900473ffffffffffffffffffffffffffffffffffffffff1673ffffffffffffffffffffffffffffffffffffffff16036110db576040517f08c379a00000000000000000000000000000000000000000000000000000000081526004016110d290611ca2565b60405180910390fd5b838160010160008282546110ef9190611b02565b925050819055508382600501600082825461110a9190611cc2565b92505081905550838573ffffffffffffffffffffffffffffffffffffffff16877f9215ac8a18fe06f1ee613cb825d49cd5e70298bab5389d89ddcf27652f893f9260405160405180910390a4505050505050565b600060018281548110611174576111736115e9565b5b9060005260206000209060070201600501549050919050565b6001818154811061119d57600080fd5b90600052602060002090600702016000915090508060000154908060010160009054906101000a900473ffffffffffffffffffffffffffffffffffffffff16908060040154908060050154908060060160009054906101000a900460ff16908060060160019054906101000a900460ff16908060060160029054906101000a900460ff16905087565b816001818154811061123b5761123a6115e9565b5b906000526020600020906007020160010160009054906101000a900473ffffffffffffffffffffffffffffffffffffffff1673ffffffffffffffffffffffffffffffffffffffff163373ffffffffffffffffffffffffffffffffffffffff16146112da576040517f08c379a00000000000000000000000000000000000000000000000000000000081526004016112d1906118b7565b60405180910390fd5b600183815481106112ee576112ed6115e9565b5b906000526020600020906007020160020160008373ffffffffffffffffffffffffffffffffffffffff1673ffffffffffffffffffffffffffffffffffffffff16815260200190815260200160002060006101000a81549060ff0219169055505050565b6000819050919050565b61136481611351565b82525050565b600060208201905061137f600083018461135b565b92915050565b600080fd5b61139381611351565b811461139e57600080fd5b50565b6000813590506113b08161138a565b92915050565b6000602082840312156113cc576113cb611385565b5b60006113da848285016113a1565b91505092915050565b600073ffffffffffffffffffffffffffffffffffffffff82169050919050565b600061140e826113e3565b9050919050565b61141e81611403565b811461142957600080fd5b50565b60008135905061143b81611415565b92915050565b6000806040838503121561145857611457611385565b5b6000611466858286016113a1565b92505060206114778582860161142c565b9150509250929050565b6000806040838503121561149857611497611385565b5b60006114a6858286016113a1565b92505060206114b7858286016113a1565b9150509250929050565b6114ca81611403565b82525050565b60006020820190506114e560008301846114c1565b92915050565b60008060006060848603121561150457611503611385565b5b6000611512868287016113a1565b93505060206115238682870161142c565b9250506040611534868287016113a1565b9150509250925092565b6000611549826113e3565b9050919050565b6115598161153e565b82525050565b60008115159050919050565b6115748161155f565b82525050565b600060e08201905061158f600083018a61135b565b61159c6020830189611550565b6115a9604083018861135b565b6115b6606083018761135b565b6115c3608083018661156b565b6115d060a083018561156b565b6115dd60c083018461156b565b98975050505050505050565b7f4e487b7100000000000000000000000000000000000000000000000000000000600052603260045260246000fd5b600082825260208201905092915050565b7f536561736f6e20686173206e6f74207374617274656420796574000000000000600082015250565b600061165f601a83611618565b915061166a82611629565b602082019050919050565b6000602082019050818103600083015261168e81611652565b9050919050565b7f596f752063616e277420776974686472617720736f6d656f6e6520656c73652760008201527f732066756e647300000000000000000000000000000000000000000000000000602082015250565b60006116f1602783611618565b91506116fc82611695565b604082019050919050565b60006020820190508181036000830152611720816116e4565b9050919050565b7f4e6f2077696e6e696e677320746f207769746864726177000000000000000000600082015250565b600061175d601783611618565b915061176882611727565b602082019050919050565b6000602082019050818103600083015261178c81611750565b9050919050565b600081905092915050565b50565b60006117ae600083611793565b91506117b98261179e565b600082019050919050565b60006117cf826117a1565b9150819050919050565b7f4661696c656420746f2073656e642077696e6e696e6773000000000000000000600082015250565b600061180f601783611618565b915061181a826117d9565b602082019050919050565b6000602082019050818103600083015261183e81611802565b9050919050565b7f4f6e6c7920636f6d6d697373696f6e65722063616e20706572666f726d20746860008201527f697320616374696f6e0000000000000000000000000000000000000000000000602082015250565b60006118a1602983611618565b91506118ac82611845565b604082019050919050565b600060208201905081810360008301526118d081611894565b9050919050565b7f41646472657373206e6f742077686974656c6973746564000000000000000000600082015250565b600061190d601783611618565b9150611918826118d7565b602082019050919050565b6000602082019050818103600083015261193c81611900565b9050919050565b7f496e636f7272656374206275792d696e20616d6f756e74000000000000000000600082015250565b6000611979601783611618565b915061198482611943565b602082019050919050565b600060208201905081810360008301526119a88161196c565b9050919050565b7f45746865722073656e7420646964206e6f74206d61746368207468652062757960008201527f2d696e20616d6f756e7400000000000000000000000000000000000000000000602082015250565b6000611a0b602a83611618565b9150611a16826119af565b604082019050919050565b60006020820190508181036000830152611a3a816119fe565b9050919050565b7f506c617965722068617320616c7265616479206a6f696e65642074686520736560008201527f61736f6e00000000000000000000000000000000000000000000000000000000602082015250565b6000611a9d602483611618565b9150611aa882611a41565b604082019050919050565b60006020820190508181036000830152611acc81611a90565b9050919050565b7f4e487b7100000000000000000000000000000000000000000000000000000000600052601160045260246000fd5b6000611b0d82611351565b9150611b1883611351565b9250828201905080821115611b3057611b2f611ad3565b5b92915050565b7f536561736f6e20697320616c726561647920636f6d706c657465000000000000600082015250565b6000611b6c601a83611618565b9150611b7782611b36565b602082019050919050565b60006020820190508181036000830152611b9b81611b5f565b9050919050565b7f506c6179657273207374696c6c206e65656420746f2062652070616964000000600082015250565b6000611bd8601d83611618565b9150611be382611ba2565b602082019050919050565b60006020820190508181036000830152611c0781611bcb565b9050919050565b6000611c1982611351565b91507fffffffffffffffffffffffffffffffffffffffffffffffffffffffffffffffff8203611c4b57611c4a611ad3565b5b600182019050919050565b7f506c61796572206973206e6f742070617274206f662074686520736561736f6e600082015250565b6000611c8c602083611618565b9150611c9782611c56565b602082019050919050565b60006020820190508181036000830152611cbb81611c7f565b9050919050565b6000611ccd82611351565b9150611cd883611351565b9250828203905081811115611cf057611cef611ad3565b5b9291505056fea2646970667358221220cd493af9f240a75a798fd32c0257a32ab96e2311d921606e3ae01f419cc899f464736f6c63430008130033",
  "linkReferences": {},
  "deployedLinkReferences": {}
}