{
  "_format": "hh-sol-artifact-1",
  "contractName": "Fantasy",
  "sourceName": "contracts/Fantasy.sol",
  "abi": [
    {
      "anonymous": false,
      "inputs": [
        {
          "indexed": true,
          "internalType": "uint256",
          "name": "seasonId",
          "type": "uint256"
        },
        {
          "indexed": true,
          "internalType": "address",
          "name": "member",
          "type": "address"
        }
      ],
      "name": "MemberJoined",
      "type": "event"
    },
    {
      "anonymous": false,
      "inputs": [
        {
          "indexed": true,
          "internalType": "uint256",
          "name": "seasonId",
          "type": "uint256"
        },
        {
          "indexed": true,
          "internalType": "address",
          "name": "member",
          "type": "address"
        },
        {
          "indexed": true,
          "internalType": "uint256",
          "name": "addedWinning",
          "type": "uint256"
        }
      ],
      "name": "PlayerWin",
      "type": "event"
    },
    {
      "anonymous": false,
      "inputs": [
        {
          "indexed": true,
          "internalType": "uint256",
          "name": "seasonId",
          "type": "uint256"
        },
        {
          "indexed": true,
          "internalType": "address",
          "name": "commisioner",
          "type": "address"
        }
      ],
      "name": "SeasonCompleted",
      "type": "event"
    },
    {
      "anonymous": false,
      "inputs": [
        {
          "indexed": true,
          "internalType": "uint256",
          "name": "seasonId",
          "type": "uint256"
        },
        {
          "indexed": true,
          "internalType": "address",
          "name": "commissioner",
          "type": "address"
        }
      ],
      "name": "SeasonStarted",
      "type": "event"
    },
    {
      "anonymous": false,
      "inputs": [
        {
          "indexed": true,
          "internalType": "uint256",
          "name": "seasonId",
          "type": "uint256"
        },
        {
          "indexed": true,
          "internalType": "address",
          "name": "member",
          "type": "address"
        }
      ],
      "name": "TippedCommissioner",
      "type": "event"
    },
    {
      "anonymous": false,
      "inputs": [
        {
          "indexed": true,
          "internalType": "uint256",
          "name": "seasonId",
          "type": "uint256"
        },
        {
          "indexed": true,
          "internalType": "address",
          "name": "member",
          "type": "address"
        }
      ],
      "name": "Whitelisted",
      "type": "event"
    },
    {
      "stateMutability": "payable",
      "type": "fallback"
    },
    {
      "inputs": [
        {
          "internalType": "uint256",
          "name": "_buyIn",
          "type": "uint256"
        }
      ],
      "name": "addSeason",
      "outputs": [],
      "stateMutability": "nonpayable",
      "type": "function"
    },
    {
      "inputs": [
        {
          "internalType": "uint256",
          "name": "_seasonId",
          "type": "uint256"
        },
        {
          "internalType": "address",
          "name": "_address",
          "type": "address"
        }
      ],
      "name": "addToWhitelist",
      "outputs": [],
      "stateMutability": "nonpayable",
      "type": "function"
    },
    {
      "inputs": [
        {
          "internalType": "uint256",
          "name": "_seasonId",
          "type": "uint256"
        },
        {
          "internalType": "address",
          "name": "_player",
          "type": "address"
        },
        {
          "internalType": "uint256",
          "name": "_winnings",
          "type": "uint256"
        }
      ],
      "name": "addWinnings",
      "outputs": [],
      "stateMutability": "nonpayable",
      "type": "function"
    },
    {
      "inputs": [
        {
          "internalType": "uint256",
          "name": "_seasonId",
          "type": "uint256"
        },
        {
          "internalType": "uint256",
          "name": "_buyIn",
          "type": "uint256"
        }
      ],
      "name": "buyIn",
      "outputs": [],
      "stateMutability": "payable",
      "type": "function"
    },
    {
      "inputs": [
        {
          "internalType": "uint256",
          "name": "_seasonId",
          "type": "uint256"
        }
      ],
      "name": "completeSeason",
      "outputs": [],
      "stateMutability": "nonpayable",
      "type": "function"
    },
    {
      "inputs": [],
      "name": "getBalance",
      "outputs": [
        {
          "internalType": "uint256",
          "name": "",
          "type": "uint256"
        }
      ],
      "stateMutability": "view",
      "type": "function"
    },
    {
      "inputs": [
        {
          "internalType": "uint256",
          "name": "_seasonId",
          "type": "uint256"
        }
      ],
      "name": "getSeasonCommissioner",
      "outputs": [
        {
          "internalType": "address",
          "name": "",
          "type": "address"
        }
      ],
      "stateMutability": "view",
      "type": "function"
    },
    {
      "inputs": [
        {
          "internalType": "uint256",
          "name": "_seasonId",
          "type": "uint256"
        }
      ],
      "name": "getSeasonPrizePool",
      "outputs": [
        {
          "internalType": "uint256",
          "name": "",
          "type": "uint256"
        }
      ],
      "stateMutability": "view",
      "type": "function"
    },
    {
      "inputs": [
        {
          "internalType": "uint256",
          "name": "_seasonId",
          "type": "uint256"
        }
      ],
      "name": "getSeasonWinnings",
      "outputs": [
        {
          "internalType": "uint256",
          "name": "",
          "type": "uint256"
        }
      ],
      "stateMutability": "view",
      "type": "function"
    },
    {
      "inputs": [
        {
          "internalType": "uint256",
          "name": "_seasonId",
          "type": "uint256"
        },
        {
          "internalType": "address",
          "name": "_address",
          "type": "address"
        }
      ],
      "name": "removeFromWhitelist",
      "outputs": [],
      "stateMutability": "nonpayable",
      "type": "function"
    },
    {
      "inputs": [],
      "name": "seasonCounter",
      "outputs": [
        {
          "internalType": "uint256",
          "name": "",
          "type": "uint256"
        }
      ],
      "stateMutability": "view",
      "type": "function"
    },
    {
      "inputs": [
        {
          "internalType": "uint256",
          "name": "",
          "type": "uint256"
        }
      ],
      "name": "seasons",
      "outputs": [
        {
          "internalType": "uint256",
          "name": "id",
          "type": "uint256"
        },
        {
          "internalType": "address payable",
          "name": "commissioner",
          "type": "address"
        },
        {
          "internalType": "uint256",
          "name": "buyIn",
          "type": "uint256"
        },
        {
          "internalType": "uint256",
          "name": "prizePool",
          "type": "uint256"
        },
        {
          "internalType": "bool",
          "name": "started",
          "type": "bool"
        },
        {
          "internalType": "bool",
          "name": "distributed",
          "type": "bool"
        },
        {
          "internalType": "bool",
          "name": "complete",
          "type": "bool"
        }
      ],
      "stateMutability": "view",
      "type": "function"
    },
    {
      "inputs": [
        {
          "internalType": "uint256",
          "name": "_seasonId",
          "type": "uint256"
        },
        {
          "internalType": "uint256",
          "name": "_amount",
          "type": "uint256"
        }
      ],
      "name": "tipCommisioner",
      "outputs": [],
      "stateMutability": "payable",
      "type": "function"
    },
    {
      "inputs": [
        {
          "internalType": "uint256",
          "name": "_seasonId",
          "type": "uint256"
        }
      ],
      "name": "withdrawWinnings",
      "outputs": [],
      "stateMutability": "nonpayable",
      "type": "function"
    },
    {
      "stateMutability": "payable",
      "type": "receive"
    }
  ],
  "bytecode": "0x608060405234801561001057600080fd5b506120fe806100206000396000f3fe6080604052600436106100e15760003560e01c8063bd7048211161007f578063f170350611610059578063f170350614610296578063f43c24e4146102bf578063f5d709a1146102fc578063fea3e6131461033f576100e8565b8063bd704821146101f3578063e661d27b14610230578063ef4ca9d814610259576100e8565b80632d785461116100bb5780632d785461146101695780632e50467e14610192578063622095da146101ae578063b9514efe146101ca576100e8565b806312065fe0146100ea57806314794702146101155780631ed29aae1461013e576100e8565b366100e857005b005b3480156100f657600080fd5b506100ff610368565b60405161010c919061163e565b60405180910390f35b34801561012157600080fd5b5061013c6004803603810190610137919061168a565b610370565b005b34801561014a57600080fd5b50610153610613565b604051610160919061163e565b60405180910390f35b34801561017557600080fd5b50610190600480360381019061018b9190611715565b610619565b005b6101ac60048036038101906101a79190611755565b610840565b005b6101c860048036038101906101c39190611755565b610b8f565b005b3480156101d657600080fd5b506101f160048036038101906101ec919061168a565b610d7c565b005b3480156101ff57600080fd5b5061021a6004803603810190610215919061168a565b610f55565b60405161022791906117a4565b60405180910390f35b34801561023c57600080fd5b506102576004803603810190610252919061168a565b610fa4565b005b34801561026557600080fd5b50610280600480360381019061027b919061168a565b61113d565b60405161028d919061163e565b60405180910390f35b3480156102a257600080fd5b506102bd60048036038101906102b891906117bf565b6111ac565b005b3480156102cb57600080fd5b506102e660048036038101906102e1919061168a565b611432565b6040516102f3919061163e565b60405180910390f35b34801561030857600080fd5b50610323600480360381019061031e919061168a565b611461565b604051610336979695949392919061184e565b60405180910390f35b34801561034b57600080fd5b5061036660048036038101906103619190611715565b6114fa565b005b600047905090565b600060018281548110610386576103856118bd565b5b906000526020600020906007020190508060060160009054906101000a900460ff166103e7576040517f08c379a00000000000000000000000000000000000000000000000000000000081526004016103de90611949565b60405180910390fd5b60008160030160003373ffffffffffffffffffffffffffffffffffffffff1673ffffffffffffffffffffffffffffffffffffffff16815260200190815260200160002090503373ffffffffffffffffffffffffffffffffffffffff168160000160009054906101000a900473ffffffffffffffffffffffffffffffffffffffff1673ffffffffffffffffffffffffffffffffffffffff16146104be576040517f08c379a00000000000000000000000000000000000000000000000000000000081526004016104b5906119db565b60405180910390fd5b6000816001015490506000811161050a576040517f08c379a000000000000000000000000000000000000000000000000000000000815260040161050190611a47565b60405180910390fd5b60003373ffffffffffffffffffffffffffffffffffffffff168260405161053090611a98565b60006040518083038185875af1925050503d806000811461056d576040519150601f19603f3d011682016040523d82523d6000602084013e610572565b606091505b50509050801561058757600083600101819055505b806105c7576040517f08c379a00000000000000000000000000000000000000000000000000000000081526004016105be90611af9565b60405180910390fd5b813373ffffffffffffffffffffffffffffffffffffffff16867f9215ac8a18fe06f1ee613cb825d49cd5e70298bab5389d89ddcf27652f893f9260405160405180910390a45050505050565b60005481565b816001818154811061062e5761062d6118bd565b5b906000526020600020906007020160010160009054906101000a900473ffffffffffffffffffffffffffffffffffffffff1673ffffffffffffffffffffffffffffffffffffffff163373ffffffffffffffffffffffffffffffffffffffff16146106cd576040517f08c379a00000000000000000000000000000000000000000000000000000000081526004016106c490611b8b565b60405180910390fd5b600183815481106106e1576106e06118bd565b5b906000526020600020906007020160020160008373ffffffffffffffffffffffffffffffffffffffff1673ffffffffffffffffffffffffffffffffffffffff16815260200190815260200160002060009054906101000a900460ff161561077d576040517f08c379a000000000000000000000000000000000000000000000000000000000815260040161077490611c1d565b60405180910390fd5b6001808481548110610792576107916118bd565b5b906000526020600020906007020160020160008473ffffffffffffffffffffffffffffffffffffffff1673ffffffffffffffffffffffffffffffffffffffff16815260200190815260200160002060006101000a81548160ff0219169083151502179055508173ffffffffffffffffffffffffffffffffffffffff16837f2279719af4080e08a5a2b25c8234a83b76079141524127d1096409ac07fa5d0f60405160405180910390a3505050565b813360018281548110610856576108556118bd565b5b906000526020600020906007020160020160008273ffffffffffffffffffffffffffffffffffffffff1673ffffffffffffffffffffffffffffffffffffffff16815260200190815260200160002060009054906101000a900460ff166108f1576040517f08c379a00000000000000000000000000000000000000000000000000000000081526004016108e890611c89565b60405180910390fd5b600060018581548110610907576109066118bd565b5b906000526020600020906007020190508060060160009054906101000a900460ff16610968576040517f08c379a000000000000000000000000000000000000000000000000000000000815260040161095f90611949565b60405180910390fd5b806004015484146109ae576040517f08c379a00000000000000000000000000000000000000000000000000000000081526004016109a590611cf5565b60405180910390fd5b8334146109f0576040517f08c379a00000000000000000000000000000000000000000000000000000000081526004016109e790611d87565b60405180910390fd5b60008160030160003373ffffffffffffffffffffffffffffffffffffffff1673ffffffffffffffffffffffffffffffffffffffff1681526020019081526020016000209050600073ffffffffffffffffffffffffffffffffffffffff168160000160009054906101000a900473ffffffffffffffffffffffffffffffffffffffff1673ffffffffffffffffffffffffffffffffffffffff1614610ac8576040517f08c379a0000000000000000000000000000000000000000000000000000000008152600401610abf90611e19565b60405180910390fd5b338160000160006101000a81548173ffffffffffffffffffffffffffffffffffffffff021916908373ffffffffffffffffffffffffffffffffffffffff16021790555060018160000160146101000a81548160ff02191690831515021790555084826005016000828254610b3c9190611e68565b925050819055503373ffffffffffffffffffffffffffffffffffffffff16867f78da64a590c3052953ad9e0a5546bbf12bb68ae7634e3fb2a774e22a8c6557c160405160405180910390a3505050505050565b813360018281548110610ba557610ba46118bd565b5b906000526020600020906007020160020160008273ffffffffffffffffffffffffffffffffffffffff1673ffffffffffffffffffffffffffffffffffffffff16815260200190815260200160002060009054906101000a900460ff16610c40576040517f08c379a0000000000000000000000000000000000000000000000000000000008152600401610c3790611c89565b60405180910390fd5b600060018581548110610c5657610c556118bd565b5b906000526020600020906007020160010160009054906101000a900473ffffffffffffffffffffffffffffffffffffffff1673ffffffffffffffffffffffffffffffffffffffff1684604051610cab90611a98565b60006040518083038185875af1925050503d8060008114610ce8576040519150601f19603f3d011682016040523d82523d6000602084013e610ced565b606091505b5050905080610d31576040517f08c379a0000000000000000000000000000000000000000000000000000000008152600401610d2890611ee8565b60405180910390fd5b3373ffffffffffffffffffffffffffffffffffffffff16857f7a769ae502b8c43e45a36c4b04aa2c5b6c4dc0bae4b291b3e43686ed6e77c8e360405160405180910390a35050505050565b8060018181548110610d9157610d906118bd565b5b906000526020600020906007020160010160009054906101000a900473ffffffffffffffffffffffffffffffffffffffff1673ffffffffffffffffffffffffffffffffffffffff163373ffffffffffffffffffffffffffffffffffffffff1614610e30576040517f08c379a0000000000000000000000000000000000000000000000000000000008152600401610e2790611b8b565b60405180910390fd5b600060018381548110610e4657610e456118bd565b5b906000526020600020906007020190508060060160029054906101000a900460ff1615610ea8576040517f08c379a0000000000000000000000000000000000000000000000000000000008152600401610e9f90611f54565b60405180910390fd5b6000816005015414610eef576040517f08c379a0000000000000000000000000000000000000000000000000000000008152600401610ee690611fc0565b60405180910390fd5b60018160060160026101000a81548160ff0219169083151502179055503373ffffffffffffffffffffffffffffffffffffffff16837f153da8a31de493ca49e0e2375b93112a0ac09b6497db92257750a4d46b5b552260405160405180910390a3505050565b600060018281548110610f6b57610f6a6118bd565b5b906000526020600020906007020160010160009054906101000a900473ffffffffffffffffffffffffffffffffffffffff169050919050565b6000805490506000600180816001815401808255809150500390600052602060002090600702019050818160000181905550828160040181905550338160010160006101000a81548173ffffffffffffffffffffffffffffffffffffffff021916908373ffffffffffffffffffffffffffffffffffffffff16021790555060018160060160006101000a81548160ff02191690831515021790555060018160020160003373ffffffffffffffffffffffffffffffffffffffff1673ffffffffffffffffffffffffffffffffffffffff16815260200190815260200160002060006101000a81548160ff0219169083151502179055506000808154809291906110ab90611fe0565b91905055503373ffffffffffffffffffffffffffffffffffffffff16827f85b74d939f39ceda70b67ac5dee1675fa6804b907f40c2189cf10d695acb11bc60405160405180910390a33373ffffffffffffffffffffffffffffffffffffffff16827f2279719af4080e08a5a2b25c8234a83b76079141524127d1096409ac07fa5d0f60405160405180910390a3505050565b600060018281548110611153576111526118bd565b5b906000526020600020906007020160030160003373ffffffffffffffffffffffffffffffffffffffff1673ffffffffffffffffffffffffffffffffffffffff168152602001908152602001600020600101549050919050565b82600181815481106111c1576111c06118bd565b5b906000526020600020906007020160010160009054906101000a900473ffffffffffffffffffffffffffffffffffffffff1673ffffffffffffffffffffffffffffffffffffffff163373ffffffffffffffffffffffffffffffffffffffff1614611260576040517f08c379a000000000000000000000000000000000000000000000000000000000815260040161125790611b8b565b60405180910390fd5b600060018581548110611276576112756118bd565b5b906000526020600020906007020190508060060160009054906101000a900460ff166112d7576040517f08c379a00000000000000000000000000000000000000000000000000000000081526004016112ce90611949565b60405180910390fd5b60008160030160008673ffffffffffffffffffffffffffffffffffffffff1673ffffffffffffffffffffffffffffffffffffffff1681526020019081526020016000209050600073ffffffffffffffffffffffffffffffffffffffff168160000160009054906101000a900473ffffffffffffffffffffffffffffffffffffffff1673ffffffffffffffffffffffffffffffffffffffff16036113af576040517f08c379a00000000000000000000000000000000000000000000000000000000081526004016113a690612074565b60405180910390fd5b838160010160008282546113c39190611e68565b92505081905550838260050160008282546113de9190612094565b92505081905550838573ffffffffffffffffffffffffffffffffffffffff16877f9215ac8a18fe06f1ee613cb825d49cd5e70298bab5389d89ddcf27652f893f9260405160405180910390a4505050505050565b600060018281548110611448576114476118bd565b5b9060005260206000209060070201600501549050919050565b6001818154811061147157600080fd5b90600052602060002090600702016000915090508060000154908060010160009054906101000a900473ffffffffffffffffffffffffffffffffffffffff16908060040154908060050154908060060160009054906101000a900460ff16908060060160019054906101000a900460ff16908060060160029054906101000a900460ff16905087565b816001818154811061150f5761150e6118bd565b5b906000526020600020906007020160010160009054906101000a900473ffffffffffffffffffffffffffffffffffffffff1673ffffffffffffffffffffffffffffffffffffffff163373ffffffffffffffffffffffffffffffffffffffff16146115ae576040517f08c379a00000000000000000000000000000000000000000000000000000000081526004016115a590611b8b565b60405180910390fd5b600183815481106115c2576115c16118bd565b5b906000526020600020906007020160020160008373ffffffffffffffffffffffffffffffffffffffff1673ffffffffffffffffffffffffffffffffffffffff16815260200190815260200160002060006101000a81549060ff0219169055505050565b6000819050919050565b61163881611625565b82525050565b6000602082019050611653600083018461162f565b92915050565b600080fd5b61166781611625565b811461167257600080fd5b50565b6000813590506116848161165e565b92915050565b6000602082840312156116a05761169f611659565b5b60006116ae84828501611675565b91505092915050565b600073ffffffffffffffffffffffffffffffffffffffff82169050919050565b60006116e2826116b7565b9050919050565b6116f2816116d7565b81146116fd57600080fd5b50565b60008135905061170f816116e9565b92915050565b6000806040838503121561172c5761172b611659565b5b600061173a85828601611675565b925050602061174b85828601611700565b9150509250929050565b6000806040838503121561176c5761176b611659565b5b600061177a85828601611675565b925050602061178b85828601611675565b9150509250929050565b61179e816116d7565b82525050565b60006020820190506117b96000830184611795565b92915050565b6000806000606084860312156117d8576117d7611659565b5b60006117e686828701611675565b93505060206117f786828701611700565b925050604061180886828701611675565b9150509250925092565b600061181d826116b7565b9050919050565b61182d81611812565b82525050565b60008115159050919050565b61184881611833565b82525050565b600060e082019050611863600083018a61162f565b6118706020830189611824565b61187d604083018861162f565b61188a606083018761162f565b611897608083018661183f565b6118a460a083018561183f565b6118b160c083018461183f565b98975050505050505050565b7f4e487b7100000000000000000000000000000000000000000000000000000000600052603260045260246000fd5b600082825260208201905092915050565b7f536561736f6e20686173206e6f74207374617274656420796574000000000000600082015250565b6000611933601a836118ec565b915061193e826118fd565b602082019050919050565b6000602082019050818103600083015261196281611926565b9050919050565b7f596f752063616e277420776974686472617720736f6d656f6e6520656c73652760008201527f732066756e647300000000000000000000000000000000000000000000000000602082015250565b60006119c56027836118ec565b91506119d082611969565b604082019050919050565b600060208201905081810360008301526119f4816119b8565b9050919050565b7f4e6f2077696e6e696e677320746f207769746864726177000000000000000000600082015250565b6000611a316017836118ec565b9150611a3c826119fb565b602082019050919050565b60006020820190508181036000830152611a6081611a24565b9050919050565b600081905092915050565b50565b6000611a82600083611a67565b9150611a8d82611a72565b600082019050919050565b6000611aa382611a75565b9150819050919050565b7f4661696c656420746f2073656e642077696e6e696e6773000000000000000000600082015250565b6000611ae36017836118ec565b9150611aee82611aad565b602082019050919050565b60006020820190508181036000830152611b1281611ad6565b9050919050565b7f4f6e6c7920636f6d6d697373696f6e65722063616e20706572666f726d20746860008201527f697320616374696f6e0000000000000000000000000000000000000000000000602082015250565b6000611b756029836118ec565b9150611b8082611b19565b604082019050919050565b60006020820190508181036000830152611ba481611b68565b9050919050565b7f54686973206164647265737320697320616c72656164792077686974656c697360008201527f7465640000000000000000000000000000000000000000000000000000000000602082015250565b6000611c076023836118ec565b9150611c1282611bab565b604082019050919050565b60006020820190508181036000830152611c3681611bfa565b9050919050565b7f41646472657373206e6f742077686974656c6973746564000000000000000000600082015250565b6000611c736017836118ec565b9150611c7e82611c3d565b602082019050919050565b60006020820190508181036000830152611ca281611c66565b9050919050565b7f496e636f7272656374206275792d696e20616d6f756e74000000000000000000600082015250565b6000611cdf6017836118ec565b9150611cea82611ca9565b602082019050919050565b60006020820190508181036000830152611d0e81611cd2565b9050919050565b7f45746865722073656e7420646964206e6f74206d61746368207468652062757960008201527f2d696e20616d6f756e7400000000000000000000000000000000000000000000602082015250565b6000611d71602a836118ec565b9150611d7c82611d15565b604082019050919050565b60006020820190508181036000830152611da081611d64565b9050919050565b7f506c617965722068617320616c7265616479206a6f696e65642074686520736560008201527f61736f6e00000000000000000000000000000000000000000000000000000000602082015250565b6000611e036024836118ec565b9150611e0e82611da7565b604082019050919050565b60006020820190508181036000830152611e3281611df6565b9050919050565b7f4e487b7100000000000000000000000000000000000000000000000000000000600052601160045260246000fd5b6000611e7382611625565b9150611e7e83611625565b9250828201905080821115611e9657611e95611e39565b5b92915050565b7f4661696c656420746f2073656e64207469700000000000000000000000000000600082015250565b6000611ed26012836118ec565b9150611edd82611e9c565b602082019050919050565b60006020820190508181036000830152611f0181611ec5565b9050919050565b7f536561736f6e20697320616c726561647920636f6d706c657465000000000000600082015250565b6000611f3e601a836118ec565b9150611f4982611f08565b602082019050919050565b60006020820190508181036000830152611f6d81611f31565b9050919050565b7f506c6179657273207374696c6c206e65656420746f2062652070616964000000600082015250565b6000611faa601d836118ec565b9150611fb582611f74565b602082019050919050565b60006020820190508181036000830152611fd981611f9d565b9050919050565b6000611feb82611625565b91507fffffffffffffffffffffffffffffffffffffffffffffffffffffffffffffffff820361201d5761201c611e39565b5b600182019050919050565b7f506c61796572206973206e6f742070617274206f662074686520736561736f6e600082015250565b600061205e6020836118ec565b915061206982612028565b602082019050919050565b6000602082019050818103600083015261208d81612051565b9050919050565b600061209f82611625565b91506120aa83611625565b92508282039050818111156120c2576120c1611e39565b5b9291505056fea26469706673582212205809a37bb5ed7b8cd0547404352b3a02acd5d65945ad1e010230f34cd9a706b964736f6c63430008130033",
  "linkReferences": {},
  "deployedLinkReferences": {}
}